:100000000C942A000C943F000C943F000C943F0089
:100010000C943F000C943F000C943F000C943F0064
:100020000C943F000C943F000C943F000C943F0054
:100030000C943F000C943F000C943F000C943F0044
:100040000C943F000C943F000C943F000C943F0034
:100050000C943F0011241FBECFE5D8E0DEBFCDBF1A
:1000600010E0A0E6B0E0E2EBFAE202C005900D92EB
:10007000A439B107D9F70E9498120C9457150C9423
:100080000000EF92FF920F931F937B018C0120E001
:1000900030E040E05FE40E94410388238CF0C80117
:1000A000B70120E030E040E05FE40E94B9010E9427
:1000B000A1039B01AC01205030404040504806C095
:1000C000C801B7010E94A1039B01AC01B901CA019B
:1000D0001F910F91FF90EF900895A0E0B0E0E3E74B
:1000E000F0E00C942015DC012B01FA019C91923078
:1000F00008F439C1EB018881823008F433C19430AF
:1001000069F4843009F02FC111969C91119789816F
:10011000981709F428C1AFE6B0E025C1843009F48E
:1001200021C18230A9F4923009F01DC19A01AD01BC
:1001300088E0EA010990AE01E90109929E0181502F
:10014000C1F7E201898111969C918923818308C1BD
:10015000923009F407C112962D903C901397EB0151
:100160008A819B811496AD90BD90CD90DC901797BD
:10017000EC80FD800E811F819101281B390BB90194
:1001800037FF04C066277727621B730B6032710547
:100190000CF061C0121613066CF537014801062EEB
:1001A00004C096948794779467940A94D2F721E0D8
:1001B00030E040E050E004C0220F331F441F551FC1
:1001C0006A95D2F721503040404050402E213F21C7
:1001D00040235123211531054105510521F021E02E
:1001E00030E040E050E079018A01E628F72808294C
:1001F00019293CC0232BD1F1260E371E35014601AB
:10020000062E04C096948794779467940A94D2F744
:1002100021E030E040E050E004C0220F331F441FD3
:10022000551F6A95D2F721503040404050402A2156
:100230003B214C215D21211531054105510521F05E
:1002400021E030E040E050E059016A01A628B728DB
:10025000C828D9280BC0821593052CF01C01AA24AC
:10026000BB24650103C0EE24FF24870111969C91F5
:10027000D20111968C91981709F445C0992339F051
:10028000A80197012A193B094C095D0906C0A6017E
:1002900095012E193F09400B510B57FD08C01182E3
:1002A0003382228224833583468357831DC081E0B5
:1002B00081833382228288279927DC01821B930B5A
:1002C000A40BB50B84839583A683B7830DC0220F3F
:1002D000331F441F551F24833583468357838281F0
:1002E000938101979383828324813581468157814D
:1002F000DA01C9010197A109B1098F5F9F4FAF4F83
:10030000BF4328F30BC0918333822282EA0CFB1C8B
:100310000C1D1D1DE482F5820683178383E0808314
:10032000248135814681578157FF1AC0C901AA2708
:1003300097FDA095BA2F81709070A070B0705695FF
:10034000479537952795822B932BA42BB52B848328
:100350009583A683B7838281938101969383828359
:10036000DF0101C0D201CD01CDB7DEB7E2E10C94CF
:100370003C15A0E2B0E0EFEBF1E00C942C156983A2
:100380007A838B839C832D833E834F835887E9E058
:10039000EE2EF12CEC0EFD1ECE010196B7010E944F
:1003A000CA048E010F5E1F4FCE010596B8010E9450
:1003B000CA048A8991E089278A8BC701B801AE01F6
:1003C000475E5F4F0E946D000E94F503A096E6E035
:1003D0000C944815A0E2B0E0E0EFF1E00C942C158D
:1003E00069837A838B839C832D833E834F835887D5
:1003F000F9E0EF2EF12CEC0EFD1ECE010196B701B7
:100400000E94CA048E010F5E1F4FCE010596B801EF
:100410000E94CA04C701B801AE01475E5F4F0E9447
:100420006D000E94F503A096E6E00C944815A0E24A
:10043000B0E0EDE1F2E00C94201569837A838B83C0
:100440009C832D833E834F835887CE010196BE0146
:10045000675F7F4F0E94CA04CE010596BE016F5EA2
:100460007F4F0E94CA049985923088F08989823032
:10047000C8F0943019F4823051F404C0843029F467
:10048000923081F48FE690E0C6C0923049F420E0CB
:100490009A858A89981321E02A87CE010996BBC0E4
:1004A000823049F420E09A858A89981321E02A8BCA
:1004B000CE014196B0C02D843E844F8458886D880B
:1004C0007E888F88988CEE24FF248701AA24BB2481
:1004D000650140E050E060E070E0E0E0F0E0C10184
:1004E00081709070892BE9F0E60CF71C081D191D2E
:1004F0009A01AB012A0D3B1D4C1D5D1D80E090E073
:10050000A0E0B0E0E614F7040805190520F481E046
:1005100090E0A0E0B0E0BA01A901480F591F6A1F9E
:100520007B1FAA0CBB1CCC1CDD1C97FE08C081E005
:1005300090E0A0E0B0E0A82AB92ACA2ADB2A3196C6
:10054000E032F10549F0660C771C881C991C569422
:10055000479437942794C3CFFA85EA892B893C893D
:100560008B859C85280F391F2E5F3F4F17C0CA010E
:1005700081709070892B61F016950795F794E79438
:1005800080E090E0A0E0B0E8E82AF92A0A2B1B2BD3
:1005900076956795579547952F5F3F4F77FDE7CF46
:1005A0000CC0440F551F661F771F17FD4160EE0CEE
:1005B000FF1C001F111F21503040403090E05907B0
:1005C00090E0690790E4790760F32B8F3C8FDB01A3
:1005D000CA018F779070A070B07080349105A1052A
:1005E000B10561F447FD0AC0E114F10401051105EC
:1005F00029F0405C5F4F6F4F7F4F40781A8EFE1797
:1006000011F081E08A8F4D8F5E8F6F8F78A383E02A
:10061000898FCE0149960E94F503A096E2E10C94E1
:100620003C15A8E1B0E0E7E1F3E00C942C156983F8
:100630007A838B839C832D833E834F83588789E005
:10064000E82EF12CEC0EFD1ECE010196B7010E94A2
:10065000CA048E010F5E1F4FCE010596B8010E949D
:10066000CA048985823040F08989823028F0C70128
:10067000B8010E94420501C08FEF6896E6E00C9435
:100680004815A8E1B0E0E7E4F3E00C942C15698389
:100690007A838B839C832D833E834F83588789E0A5
:1006A000E82EF12CEC0EFD1ECE010196B7010E9442
:1006B000CA048E010F5E1F4FCE010596B8010E943D
:1006C000CA048985823040F08989823028F0C701C8
:1006D000B8010E94420501C08FEF6896E6E00C94D5
:1006E0004815A8E1B0E0E7E7F3E00C942C15698326
:1006F0007A838B839C832D833E834F83588789E045
:10070000E82EF12CEC0EFD1ECE010196B7010E94E1
:10071000CA048E010F5E1F4FCE010596B8010E94DC
:10072000CA048985823040F08989823028F0C70167
:10073000B8010E94420501C081E06896E6E00C9491
:100740004815ACE0B0E0E7EAF3E00C9430156983BB
:100750007A838B839C83CE010196BE016B5F7F4FB2
:100760000E94CA048D81823061F1823050F1843060
:1007700021F48E81882351F12EC02F81388537FDD9
:1007800020C06E812F3131051CF06623F9F023C0A3
:100790008EE190E0821B930B29853A854B855C8521
:1007A00004C056954795379527958A95D2F76623C5
:1007B000B1F050954095309521953F4F4F4F5F4F89
:1007C0000EC020E030E040E050E009C02FEF3FEFE6
:1007D0004FEF5FE704C020E030E040E050E8B901AF
:1007E000CA012C96E2E00C944C15DF92EF92FF9236
:1007F0000F931F93FC01E480F58006811781D1805F
:100800008081823048F480E090E0A0E1B0E0E82A06
:10081000F92A0A2B1B2BA5C0843009F49FC0823013
:1008200021F4EE24FF24870105C0E114F104010541
:10083000110519F4E0E0F0E096C0628173819FEF4A
:10084000623879070CF05BC022E83FEF261B370BBC
:100850002A3131052CF020E030E040E050E02AC0A1
:10086000B801A701022E04C0769567955795479564
:100870000A94D2F781E090E0A0E0B0E004C0880FD5
:10088000991FAA1FBB1F2A95D2F70197A109B10989
:100890008E219F21A023B1230097A105B10521F04E
:1008A00081E090E0A0E0B0E09A01AB01282B392B69
:1008B0004A2B5B2BDA01C9018F779070A070B07062
:1008C00080349105A105B10539F427FF09C0205CEA
:1008D0003F4F4F4F5F4F04C0215C3F4F4F4F5F4F23
:1008E000E0E0F0E02030A0E03A07A0E04A07A0E412
:1008F0005A0710F0E1E0F0E079018A0127C0603882
:10090000710564F5FB01E158FF4FD801C7018F77EE
:100910009070A070B07080349105A105B10539F4D4
:10092000E7FE0DC080E490E0A0E0B0E004C08FE3FB
:1009300090E0A0E0B0E0E80EF91E0A1F1B1F17FFB1
:1009400005C016950795F794E794319687E01695BC
:100950000795F794E7948A95D1F705C0EE24FF2414
:100960008701EFEFF0E06E2F679566276795902F70
:100970009F77D794DD24D7948E2F8695492F462BC9
:10098000582F5D29B701CA011F910F91FF90EF9079
:10099000DF900895FC01DB01408151812281622FAB
:1009A0006F7770E0221F2227221F9381892F880FE3
:1009B000822B282F30E0991F9927991F11969C931D
:1009C000119721153105A9F54115510561057105ED
:1009D00011F482E037C082E89FEF13969C938E93C8
:1009E00012979A01AB0167E0220F331F441F551F76
:1009F0006A95D1F783E08C930DC0220F331F441FFB
:100A0000551F12968D919C911397019713969C9365
:100A10008E931297203080E0380780E0480780E40A
:100A2000580758F314962D933D934D935C93179765
:100A300008952F3F310579F4411551056105710580
:100A400019F484E08C93089564FF03C081E08C93D3
:100A500012C01C9210C02F57304013963C932E9317
:100A6000129783E08C9387E0440F551F661F771F12
:100A70008A95D1F7706414964D935D936D937C9332
:100A8000179708951F93DC01FB019C91923008F4A5
:100A900047C08081823008F443C0943051F41196ED
:100AA0001C91843099F58181682F70E0611B710978
:100AB0003FC0843021F0923031F48230B9F181812D
:100AC000882389F12DC011961C9111978230F1F085
:100AD00081811817D9F412962D913C911397828138
:100AE00093818217930794F028173907BCF0149666
:100AF0008D919D910D90BC91A02D248135814681D1
:100B00005781281739074A075B0718F4112341F06A
:100B10000AC082179307A407B50740F4112319F000
:100B200061E070E005C06FEF7FEF02C060E070E051
:100B3000CB011F910895DF93CF930F92CDB7DEB70E
:100B400081E08983AAE3B0E0EAE3F0E0808181609C
:100B50008C9389810F90CF91DF910895DF93CF938C
:100B600000D000D000D0CDB7DEB78A836B834C8332
:100B700081E089838A81843008F0D0C08B818830FD
:100B800008F0CCC08C81823008F0C8C08A81282F40
:100B900030E03E832D836D817E816130710509F4E3
:100BA00041C08D819E818230910534F42D813E813A
:100BB0002115310571F0B0C06D817E816230710503
:100BC00009F459C08D819E818330910509F47CC060
:100BD000A3C0AAE3B0E0EAE3F0E08081482F8B8174
:100BE000282F30E081E090E002C0880F991F2A95FD
:100BF000E2F7809584238C93AAE3B0E0EAE3F0E087
:100C00008081482F8C81282F30E08B81882F90E0C5
:100C1000B90102C0660F771F8A95E2F7CB01842BDA
:100C20008C937AC0A7E3B0E0E7E3F0E08081482F3F
:100C30008B81282F30E081E090E002C0880F991F5F
:100C40002A95E2F7809584238C93A7E3B0E0E7E34D
:100C5000F0E08081482F8C81282F30E08B81882F15
:100C600090E0B90102C0660F771F8A95E2F7CB01C9
:100C7000842B8C9351C0A4E3B0E0E4E3F0E08081E6
:100C8000482F8B81282F30E081E090E002C0880F50
:100C9000991F2A95E2F7809584238C93A4E3B0E012
:100CA000E4E3F0E08081482F8C81282F30E08B81B5
:100CB000882F90E0B90102C0660F771F8A95E2F78E
:100CC000CB01842B8C9328C0A1E3B0E0E1E3F0E0FA
:100CD0008081482F8B81282F30E081E090E002C096
:100CE000880F991F2A95E2F7809584238C93A1E3BE
:100CF000B0E0E1E3F0E08081482F8C81282F30E0E4
:100D00008B81882F90E0B90102C0660F771F8A950A
:100D1000E2F7CB01842B8C93198202C082E0898395
:100D2000898126960FB6F894DEBF0FBECDBFCF9156
:100D3000DF910895DF93CF9300D000D000D0CDB7DE
:100D4000DEB78A836B834C8381E089838A81843018
:100D500008F0D3C08B81883008F0CFC08C818230FE
:100D600020F08C81823008F0C8C08A81282F30E0C2
:100D70003E832D836D817E816130710509F441C010
:100D80008D819E818230910534F42D813E81211523
:100D9000310571F0B0C06D817E816230710509F45A
:100DA00059C08D819E818330910509F47CC0A3C018
:100DB000ABE3B0E0EBE3F0E08081482F8B81282F9C
:100DC00030E081E090E002C0880F991F2A95E2F799
:100DD000809584238C93ABE3B0E0EBE3F0E080817B
:100DE000482F8C81282F30E08B81882F90E0B9012B
:100DF00002C0660F771F8A95E2F7CB01842B8C9394
:100E00007AC0A8E3B0E0E8E3F0E08081482F8B816E
:100E1000282F30E081E090E002C0880F991F2A95CA
:100E2000E2F7809584238C93A8E3B0E0E8E3F0E058
:100E30008081482F8C81282F30E08B81882F90E093
:100E4000B90102C0660F771F8A95E2F7CB01842BA8
:100E50008C9351C0A5E3B0E0E5E3F0E08081482F3A
:100E60008B81282F30E081E090E002C0880F991F2D
:100E70002A95E2F7809584238C93A5E3B0E0E5E31F
:100E8000F0E08081482F8C81282F30E08B81882FE3
:100E900090E0B90102C0660F771F8A95E2F7CB0197
:100EA000842B8C9328C0A2E3B0E0E2E3F0E08081E1
:100EB000482F8B81282F30E081E090E002C0880F1E
:100EC000991F2A95E2F7809584238C93A2E3B0E0E2
:100ED000E2E3F0E08081482F8C81282F30E08B8185
:100EE000882F90E0B90102C0660F771F8A95E2F75C
:100EF000CB01842B8C93198202C082E08983898183
:100F000026960FB6F894DEBF0FBECDBFCF91DF910E
:100F10000895DF93CF9300D000D00F92CDB7DEB706
:100F20008A836B8381E089838A81843008F074C06E
:100F30008B81883008F070C08A81282F30E03D8393
:100F40002C838C819D818130910549F12C813D81DB
:100F5000223031052CF48C819D81009761F05AC0BC
:100F60002C813D812230310571F18C819D8183304E
:100F70009105E9F14FC0ABE3B0E0EBE3F0E0808135
:100F8000482F8B81282F30E081E090E0022E02C0B4
:100F9000880F991F0A94E2F784278C933BC0A8E33B
:100FA000B0E0E8E3F0E08081482F8B81282F30E02B
:100FB00081E090E0022E02C0880F991F0A94E2F7A8
:100FC00084278C9327C0A5E3B0E0E5E3F0E08081BF
:100FD000482F8B81282F30E081E090E0022E02C064
:100FE000880F991F0A94E2F784278C9313C0A2E319
:100FF000B0E0E2E3F0E08081482F8B81282F30E0E1
:1010000081E090E0022E02C0880F991F0A94E2F757
:1010100084278C93198202C082E0898389810F9092
:101020000F900F900F900F90CF91DF910895DF9365
:10103000CF93CDB7DEB727970FB6F894DEBF0FBEBC
:10104000CDBF8A836B835D834C8381E089838C81F0
:101050009D81009709F47DC08A81843008F076C0B4
:101060008B81883008F072C08A81282F30E03F835E
:101070002E834E815F814130510559F18E819F81D0
:101080008230910534F42E813F812115310569F0BC
:101090005BC04E815F814230510579F18E819F8125
:1010A0008330910509F43DC04FC0E9E3F0E0808151
:1010B000282F30E08B81882F90E0A90102C0559540
:1010C00047958A95E2F7CA018170EC81FD818083A2
:1010D0003BC0E6E3F0E08081282F30E08B81882F51
:1010E00090E0A90102C0559547958A95E2F7CA019B
:1010F0008170EC81FD81808327C0E3E3F0E0808193
:10110000282F30E08B81882F90E0A90102C05595EF
:1011100047958A95E2F7CA018170EC81FD81808351
:1011200013C0E0E3F0E08081282F30E08B81882F2E
:1011300090E0A90102C0559547958A95E2F7CA014A
:101140008170EC81FD818083198205C082E08983F2
:1011500002C083E08983898127960FB6F894DEBFA9
:101160000FBECDBFCF91DF910895DF93CF93CDB761
:10117000DEB7E9970FB6F894DEBF0FBECDBF81E0B2
:1011800089AF80E061E041E00E94AE0581E062E06D
:1011900041E00E94AE0580E062E041E00E94AE05C1
:1011A00080E066E041E00E94AE0580E065E041E05D
:1011B0000E94AE0580E064E041E00E94AE0580E060
:1011C00063E041E00E94AE0580E090E0ACE0B2E474
:1011D0008DAB9EABAFABB8AF6DA97EA98FA998AD13
:1011E00020E030E04AE755E40E941702DC01CB0121
:1011F00089AB9AABABABBCAB69A97AA98BA99CA90B
:1012000020E030E040E85FE30E94710388232CF483
:1012100081E090E098AB8FA73FC069A97AA98BA91C
:101220009CA920E03FEF4FE757E40E9411031816F6
:101230004CF56DA97EA98FA998AD20E030E040E281
:1012400051E40E941702DC01CB01BC01CD010E94D8
:101250004100DC01CB0198AB8FA70FC080E991E082
:101260009EA78DA78DA59EA50197F1F79EA78DA797
:101270008FA598A9019798AB8FA78FA598A90097DC
:1012800069F714C069A97AA98BA99CA90E94410099
:10129000DC01CB0198AB8FA78FA598A99CA78BA742
:1012A0008BA59CA50197F1F79CA78BA780E061E037
:1012B00040E00E949A0688E20E942F0B80E090E0B6
:1012C000A0E8BFE38FA398A7A9A7BAA76FA178A5A5
:1012D00089A59AA520E030E04AE755E40E9417026C
:1012E000DC01CB018BA39CA3ADA3BEA36BA17CA10E
:1012F0008DA19EA120E030E040E85FE30E947103F1
:1013000088232CF481E090E09AA389A33FC06BA1CD
:101310007CA18DA19EA120E03FEF4FE757E40E9402
:10132000110318164CF56FA178A589A59AA520E0A0
:1013300030E040E251E40E941702DC01CB01BC0125
:10134000CD010E944100DC01CB019AA389A30FC00B
:1013500080E991E098A38F8F8F8D98A10197F1F785
:1013600098A38F8F89A19AA101979AA389A389A194
:101370009AA1009769F714C06BA17CA18DA19EA1D1
:101380000E944100DC01CB019AA389A389A19AA103
:101390009E8F8D8F8D8D9E8D0197F1F79E8F8D8FF6
:1013A00080E061E040E00E949A068FE00E942F0BEF
:1013B00080E090E0A0E8BFE3898F9A8FAB8FBC8F6D
:1013C000698D7A8D8B8D9C8D20E030E04AE755E465
:1013D0000E941702DC01CB018D8B9E8BAF8BB88FE7
:1013E0006D897E898F89988D20E030E040E85FE349
:1013F0000E94710388232CF481E090E09C8B8B8BFE
:101400003FC06D897E898F89988D20E03FEF4FE73F
:1014100057E40E94110318164CF5698D7A8D8B8D57
:101420009C8D20E030E040E251E40E941702DC0194
:10143000CB01BC01CD010E944100DC01CB019C8BA2
:101440008B8B0FC080E991E09A8B898B89899A896F
:101450000197F1F79A8B898B8B899C8901979C8BDB
:101460008B8B8B899C89009769F714C06D897E8965
:101470008F89988D0E944100DC01CB019C8B8B8B66
:101480008B899C89988B8F878F8598890197F1F735
:10149000988B8F8780E061E040E00E949A0681E0AF
:1014A0000E942F0B80E090E0A0E0B0E48B879C8747
:1014B000AD87BE876B857C858D859E8520E030E07D
:1014C0004AE755E40E941702DC01CB018F8398871D
:1014D000A987BA876F81788589859A8520E030E071
:1014E00040E85FE30E94710388232CF481E090E0E0
:1014F0009E838D833FC06F81788589859A8520E0A2
:101500003FEF4FE757E40E94110318164CF56B8527
:101510007C858D859E8520E030E040E251E40E948C
:101520001702DC01CB01BC01CD010E944100DC01AE
:10153000CB019E838D830FC080E991E09C838B83D8
:101540008B819C810197F1F79C838B838D819E8198
:1015500001979E838D838D819E81009769F714C0CA
:101560006F81788589859A850E944100DC01CB01D5
:101570009E838D838D819E819A83898389819A81BF
:101580000197F1F79A83898380E061E040E00E944F
:101590009A0686E00E942F0B89ADE9960FB6F89463
:1015A000DEBF0FBECDBFCF91DF910895DF93CF9304
:1015B00000D00F92CDB7DEB79B838A8381E0898309
:1015C0008A819B810097B1F00FC080E061E041E02B
:1015D0000E949A06EA81FB8180810E942F0B8A81FA
:1015E0009B8101969B838A83EA81FB81808188238A
:1015F00061F702C083E0898389810F900F900F907B
:10160000CF91DF910895DF93CF9300D0CDB7DEB7B0
:101610008A8381E0898380E061E040E00E949A064D
:101620008A810E942F0B89810F900F90CF91DF91BB
:101630000895DF93CF9300D0CDB7DEB78A8381E0E2
:10164000898380E061E041E00E949A068A810E94DD
:101650002F0B89810F900F90CF91DF9108950F93F9
:101660001F93DF93CF93CDB7DEB7C756D0400FB6E9
:10167000F894DEBF0FBECDBFFE01EE59FF4F808351
:10168000FE01EB5AFF4F81E08083CE018A5A9F4FC3
:10169000A5969FAF8EAFA59787E790E0A7969FAFDF
:1016A0008EAFA7979CE0A8969FAFA897A796EEADA0
:1016B000FFADA7970080A7968EAD9FADA797019627
:1016C000A7969FAF8EAFA797A596EEADFFADA59756
:1016D0000082A5968EAD9FADA5970196A5969FAF6A
:1016E0008EAFA597A8969FADA8979150A8969FAF4B
:1016F000A897A896EFADA897EE23C1F681E062E027
:1017000040E00E949A06FE01EA5AFF4F808380E083
:1017100062E040E00E949A06FE01EA5AFF4F818390
:10172000FE01EE59FF4F8081883209F079C1FE0138
:10173000EE59FF4F8081982F991F9927991F80E0BC
:1017400066E0492F0E949A06FE01EE59FF4F808104
:101750008295869586958370982F917080E065E0DC
:10176000492F0E949A06FE01EE59FF4F8081829513
:1017700086958770982F917080E064E0492F0E94D1
:101780009A06FE01EE59FF4F808182958F70982F47
:10179000917080E063E0492F0E949A0680E062E049
:1017A00041E00E949A06FE01EF5AFF4F80E090E070
:1017B000A0EAB0E480839183A283B3838E01035BAC
:1017C0001F4FFE01EF5AFF4F60817181828193812B
:1017D00020E030E04AE755E40E941702DC01CB012B
:1017E000F80180839183A283B383FE01E35BFF4F03
:1017F000608171818281938120E030E040E85FE385
:101800000E947103882344F4FE01E55BFF4F81E0F1
:1018100090E09183808364C0FE01E35BFF4F6081B1
:1018200071818281938120E03FEF4FE757E40E946E
:10183000110318160CF043C0FE01EF5AFF4F6081F0
:1018400071818281938120E030E040E251E40E9486
:101850001702DC01CB018E01055B1F4FBC01CD01DE
:101860000E944100DC01CB01F801918380831FC0FD
:10187000FE01E75BFF4F80E991E091838083FE01E9
:10188000E75BFF4F808191810197F1F7FE01E75BF4
:10189000FF4F91838083DE01A55BBF4FFE01E55BB7
:1018A000FF4F80819181019711969C938E93FE0149
:1018B000E55BFF4F808191810097D1F627C08E01B3
:1018C000055B1F4FFE01E35BFF4F608171818281E9
:1018D00093810E944100DC01CB01F8019183808358
:1018E000DE01A95BBF4FFE01E55BFF4F8081918167
:1018F0008D939C93FE01E95BFF4F8081918101975D
:10190000F1F7FE01E95BFF4F9183808380E062E0A5
:1019100040E00E949A06FE01ED5BFF4F80E090E000
:10192000A0EAB0E480839183A283B3838E01015C3B
:101930001F4FFE01ED5BFF4F6081718182819381BA
:1019400020E030E04AE755E40E941702DC01CB01B9
:10195000F80180839183A283B383FE01FF966081A7
:1019600071818281938120E030E040E85FE30E9452
:10197000710388232CF481E090E09EAF8DAF46C0C8
:10198000FE01FF96608171818281938120E03FEFAB
:101990004FE757E40E941103181664F5FE01ED5B52
:1019A000FF4F608171818281938120E030E040E2CD
:1019B00051E40E941702DC01CB01BC01CD010E9461
:1019C0004100DC01CB019EAF8DAF0FC080E991E0FB
:1019D0009CAF8BAF8BAD9CAD0197F1F79CAF8BAFFC
:1019E0008DAD9EAD01979EAF8DAF8DAD9EAD009735
:1019F00069F716C0FE01FF96608171818281938133
:101A00000E944100DC01CB019EAF8DAF8DAD9EAD3C
:101A10009AAF89AF89AD9AAD0197F1F79AAF89AFC7
:101A2000FE01EE59FF4F8081982F991F9927991F2A
:101A300080E066E0492F0E949A06FE01EE59FF4FB2
:101A400080818295869586958370982F917080E02D
:101A500065E0492F0E949A06FE01EE59FF4F8081F2
:101A6000829586958770982F917080E064E0492F69
:101A70000E949A06FE01EE59FF4F808182958F7079
:101A8000982F917080E063E0492F0E949A0680E0D1
:101A900062E041E00E949A0680E090E0A0EAB0E4B3
:101AA0008DAB9EABAFABB8AF6DA97EA98FA998AD3A
:101AB00020E030E04AE755E40E941702DC01CB0148
:101AC00089AB9AABABABBCAB69A97AA98BA99CA932
:101AD00020E030E040E85FE30E94710388232CF4AB
:101AE00081E090E098AB8FA73FC069A97AA98BA944
:101AF0009CA920E03FEF4FE757E40E94110318161E
:101B00004CF56DA97EA98FA998AD20E030E040E2A8
:101B100051E40E941702DC01CB01BC01CD010E94FF
:101B20004100DC01CB0198AB8FA70FC080E991E0A9
:101B30009EA78DA78DA59EA50197F1F79EA78DA7BE
:101B40008FA598A9019798AB8FA78FA598A9009703
:101B500069F714C069A97AA98BA99CA90E944100C0
:101B6000DC01CB0198AB8FA78FA598A99CA78BA769
:101B70008BA59CA50197F1F79CA78BA780E062E05D
:101B800040E00E949A0680E090E0A0EAB0E48FA3D3
:101B900098A7A9A7BAA76FA178A589A59AA520E0BB
:101BA00030E04AE755E40E941702DC01CB018BA329
:101BB0009CA3ADA3BEA36BA17CA18DA19EA120E09F
:101BC00030E040E85FE30E94710388232CF481E059
:101BD00090E09AA389A33FC06BA17CA18DA19EA197
:101BE00020E03FEF4FE757E40E94110318164CF531
:101BF0006FA178A589A59AA520E030E040E251E4E4
:101C00000E941702DC01CB01BC01CD010E94410002
:101C1000DC01CB019AA389A30FC080E991E098A3CE
:101C20008F8F8F8D98A10197F1F798A38F8F89A13E
:101C30009AA101979AA389A389A19AA1009769F70C
:101C400014C06BA17CA18DA19EA10E944100DC016A
:101C5000CB019AA389A389A19AA19E8F8D8F8D8D87
:101C60009E8D0197F1F79E8F8D8FFE01EE59FF4FEC
:101C70008081869586958695982F917080E066E0A4
:101C8000492F0E949A06FE01EE59FF4F80818695EA
:101C90008695982F917080E065E0492F0E949A0602
:101CA000FE01EE59FF4F80818695982F917080E05C
:101CB00064E0492F0E949A06FE01EE59FF4F808191
:101CC000982F917080E063E0492F0E949A0680E08F
:101CD00062E041E00E949A0680E090E0A0EAB0E471
:101CE000898F9A8FAB8FBC8F698D7A8D8B8D9C8DF0
:101CF00020E030E04AE755E40E941702DC01CB0106
:101D00008D8B9E8BAF8BB88F6D897E898F89988DD7
:101D100020E030E040E85FE30E94710388232CF468
:101D200081E090E09C8B8B8B3FC06D897E898F8991
:101D3000988D20E03FEF4FE757E40E9411031816FB
:101D40004CF5698D7A8D8B8D9C8D20E030E040E2E2
:101D500051E40E941702DC01CB01BC01CD010E94BD
:101D60004100DC01CB019C8B8B8B0FC080E991E0A3
:101D70009A8B898B89899A890197F1F79A8B898B3C
:101D80008B899C8901979C8B8B8B8B899C89009775
:101D900069F714C06D897E898F89988D0E944100F2
:101DA000DC01CB019C8B8B8B8B899C89988B8F87DB
:101DB0008F8598890197F1F7988B8F8780E062E093
:101DC00040E00E949A0680E090E0A0EAB0E48B87B1
:101DD0009C87AD87BE876B857C858D859E8520E041
:101DE00030E04AE755E40E941702DC01CB018F8303
:101DF0009887A987BA876F81788589859A8520E039
:101E000030E040E85FE30E94710388232CF481E016
:101E100090E09E838D833FC06F81788589859A8508
:101E200020E03FEF4FE757E40E94110318164CF5EE
:101E30006B857C858D859E8520E030E040E251E415
:101E40000E941702DC01CB01BC01CD010E944100C0
:101E5000DC01CB019E838D830FC080E991E09C83E0
:101E60008B838B819C810197F1F79C838B838D8180
:101E70009E8101979E838D838D819E81009769F756
:101E800014C06F81788589859A850E944100DC01A4
:101E9000CB019E838D838D819E819A8389838981E5
:101EA0009A810197F1F79A838983FE01EB5AFF4FDC
:101EB0008081C959DF4F0FB6F894DEBF0FBECDBF8A
:101EC000CF91DF911F910F910895DF93CF93CDB7FD
:101ED000DEB72B970FB6F894DEBF0FBECDBF688775
:101EE00079878A879B8781E08F831B821C821D8272
:101EF0001E821A82198288859985AA85BB85BB2393
:101F00000CF057C080E061E041E00E949A068DE24B
:101F10000E942F0B88859985AA85BB85B095A095D1
:101F2000909581959F4FAF4FBF4F88879987AA871C
:101F3000BB873FC088859985AA85BB852AE030E0AC
:101F400040E050E0BC01CD010E94E314DC01CB0174
:101F50008A838B819C81AD81BE812AE030E040E0A4
:101F600050E0BC01CD010E94C4149B01AC018A81E8
:101F7000882F90E0A0E0B0E0820F931FA41FB51F50
:101F80008B839C83AD83BE8388859985AA85BB8519
:101F90002AE030E040E050E0BC01CD010E94E314B3
:101FA000DA01C90188879987AA87BB8789818F5FF2
:101FB000898388859985AA85BB850097A105B10588
:101FC00009F0B8CF2DC08B819C81AD81BE812AE004
:101FD00030E040E050E0BC01CD010E94E314DC01A0
:101FE000CB018A8380E061E041E00E949A068A8109
:101FF000805D0E942F0B8B819C81AD81BE812AE088
:1020000030E040E050E0BC01CD010E94E314DA0171
:10201000C9018B839C83AD83BE8389818150898371
:102020008981882381F68F812B960FB6F894DEBFC5
:102030000FBECDBFCF91DF910895DF93CF9300D036
:1020400000D0CDB7DEB789836A838A818832C0F435
:102050008981282F30E03C832B838B819C810097E2
:1020600031F02B813C812130310531F009C08A816A
:1020700080580E94030B04C08A8180540E94030B85
:102080000F900F900F900F90CF91DF910895DF93F5
:10209000CF930F92CDB7DEB781E0898383E062E012
:1020A00041E00E94AE0583E063E041E00E94AE059E
:1020B00083E064E041E00E94AE0583E065E041E03A
:1020C0000E94AE0581E064E040E00E94AE0581E040
:1020D00065E040E00E94AE0581E066E040E00E94DD
:1020E000AE0581E067E040E00E94AE0583E062E07B
:1020F00041E00E949A0683E063E041E00E949A0674
:1021000083E064E041E00E949A0683E065E041E0FC
:102110000E949A0681E064E041E00E949A0681E014
:1021200065E041E00E949A0681E066E041E00E949D
:102130009A0681E067E041E00E949A0689810F904B
:10214000CF91DF910895DF93CF93CDB7DEB7EA97B4
:102150000FB6F894DEBF0FBECDBF9DAB8CAB81E058
:102160008A8B81E08B8B81E08C8B81E08D8B81E091
:102170008E8B83E08F8B83E0888F83E0898F83E071
:102180008A8F84E08B8F85E08C8F86E08D8F87E04F
:102190008E8F82E08F8F83E088A384E089A385E01F
:1021A0008AA3198A188A8FEF8BA38FEF8F87188ADB
:1021B0003BC18889282F30E0CE014796FC01E20F11
:1021C000F31F40818889282F30E0CE014F96FC0113
:1021D000E20FF31F9081842F692F40E00E949A063E
:1021E000198A04C18989282F30E0CE014396FC0169
:1021F000E20FF31F40818989282F30E0CE014B96F2
:10220000FC01E20FF31F90819E012D5D3F4F842F53
:10221000692FA9010E9417088BA1882309F0E3C048
:1022200080E090E0A0E2B1E48B879C87AD87BE8719
:102230006B857C858D859E8520E030E04AE755E4FE
:102240000E941702DC01CB018F839887A987BA8788
:102250006F81788589859A8520E030E040E85FE3EA
:102260000E94710388232CF481E090E09E838D838B
:102270003FC06F81788589859A8520E03FEF4FE7E1
:1022800057E40E94110318164CF56B857C858D85EB
:102290009E8520E030E040E251E40E941702DC011C
:1022A000CB01BC01CD010E944100DC01CB019E832A
:1022B0008D830FC080E991E09C838B838B819C810F
:1022C0000197F1F79C838B838D819E8101979E837B
:1022D0008D838D819E81009769F714C06F81788509
:1022E00089859A850E944100DC01CB019E838D8304
:1022F0008D819E819A83898389819A810197F1F7E3
:102300009A8389838989282F30E0CE014396FC0186
:10231000E20FF31F40818989282F30E0CE014B96D0
:10232000FC01E20FF31F90819E012D5D3F4F842F32
:10233000692FA9010E9417088BA1882309F053C0B7
:102340001AC08989282F30E0CE014396FC01E20FA4
:10235000F31F40818989282F30E0CE014B96FC0184
:10236000E20FF31F90819E012D5D3F4F842F692F57
:10237000A9010E9417088BA1882319F3CE01849626
:102380009FAB8EABE3E8F0E0F9AFE8AFF0E1FAAF76
:10239000E8ADF9AD008088AD99AD019699AF88AFF1
:1023A000EEA9FFA900828EA99FA901969FAB8EABD3
:1023B0009AAD91509AAFEAADEE2351F78989282F53
:1023C00030E08889482F50E0220F331F220F331F3F
:1023D000CE010196820F931F840F951FFC01B396C7
:1023E00080818F871A8A89898F5F898B8989843058
:1023F00008F4F8CE8889282F30E0CE014796FC01FA
:10240000E20FF31F40818889282F30E0CE014F96DC
:10241000FC01E20FF31F9081842F692F41E00E949D
:102420009A0688898F5F888B8889843008F4C1CEAA
:10243000ECA9FDA98F8580838A89EA960FB6F89466
:10244000DEBF0FBECDBFCF91DF910895EF92FF9217
:102450000F931F93DF93CF9300D000D000D0CDB760
:10246000DEB79E838D8319821A821B821C82ED81C6
:10247000FE8180819181A281B38128EE33E040E02A
:1024800050E0BC01CD010E94C4147B018C018D8100
:102490009E81FC01349680819181A281B38124E6E2
:1024A00030E040E050E0BC01CD010E94C414DC01EA
:1024B000CB01E80EF91E0A1F1B1F8D819E81FC01B6
:1024C000389680819181A281B3812AE030E040E09A
:1024D00050E0BC01CD010E94C414DC01CB01A80175
:1024E0009701280F391F4A1F5B1F8D819E81FC01B8
:1024F0003C9680819181A281B381820F931FA41F9A
:10250000B51F89839A83AB83BC8389819A81AB8110
:10251000BC81BC01CD0126960FB6F894DEBF0FBE7C
:10252000CDBFCF91DF911F910F91FF90EF90089554
:102530000F931F93DF93CF93CDB7DEB761970FB69D
:10254000F894DEBF0FBECDBF0E94B5080E944710B1
:102550001B861C861D861E861A868FEF8F8719861E
:102560001D821E821F82188619821A821B821C827B
:10257000CE010F960E94A3108F858F3FC9F38F85E0
:102580008A3008F06EC089858823A9F58F85882F49
:1025900090E0A0E0B0E0BC01CD010E94650F8D810C
:1025A0009E81AF81B8852AE030E040E050E0BC0178
:1025B000CD010E94C414DC01CB018D839E83AF83C7
:1025C000B8878F85282F30E040E050E08D819E81D4
:1025D000AF81B885820F931FA41FB51F8D839E8383
:1025E000AF83B8878F85882F90E0009709F680E346
:1025F0000E94190BBDCF8F85882F90E0A0E0B0E03E
:10260000BC01CD010E94650F89819A81AB81BC819B
:102610002AE030E040E050E0BC01CD010E94C4144B
:10262000DC01CB0189839A83AB83BC838F85282F00
:1026300030E040E050E089819A81AB81BC81820F1B
:10264000931FA41FB51F89839A83AB83BC838F8597
:10265000882F90E0009709F08BCF80E30E94190B40
:1026600087CF8F850E94190B8F858D3309F08EC01F
:102670008985282F30E0398B288B888999898F327A
:10268000910509F45EC028893989203331055CF44D
:10269000888999898B32910561F0288939892D3291
:1026A0003105F9F065CF888999898837910589F1D5
:1026B0005FCF8D819E81AF81B88529813A814B8121
:1026C0005C81FE013B96BC01CD018F010E941E146E
:1026D0008B859C85AD85BE85BC01CD010E94650FB3
:1026E00047CF8D819E81AF81B88529813A814B8109
:1026F0005C81FE013B96BC01CD018F010E9452140A
:102700008B859C85AD85BE85BC01CD010E94650F82
:102710002FCF8D819E81AF81B88529813A814B81F0
:102720005C81FE013B96BC01CD018F010E948E149D
:102730008B859C85AD85BE85BC01CD010E94650F52
:1027400017CF81E060E00E941D108D819E81AF81D6
:10275000B88529813A814B815C81FE013B96BC01A1
:10276000CD018F010E94DB138A878A85882349F077
:102770008B859C85AD85BE85BC01CD010E94650F12
:10278000F7CE80E690E00E94D60AF2CE8F858334A1
:1027900079F481E00E94030B8FEF8F8719861D82E9
:1027A0001E821F82188619821A821B821C82E0CE2A
:1027B0008F858987DDCE0F931F93DF93CF93CDB79E
:1027C000DEB72B970FB6F894DEBF0FBECDBF6A837E
:1027D0007B838C839D832E833F83488759871B8708
:1027E0000A8719828E819F81A885B9850097A105E6
:1027F000B105B9F08A819B81AC81BD812E813F8179
:1028000048855985BC01CD010E94E314DA01C90154
:10281000EA85FB8580839183A283B38381E08983EA
:1028200001C0198289812B960FB6F894DEBF0FBEC6
:10283000CDBFCF91DF911F910F9108950F931F93FB
:10284000DF93CF93CDB7DEB72A970FB6F894DEBFEC
:102850000FBECDBF69837A838B839C832D833E8398
:102860004F8358871A87098729813A814B815C8178
:102870008D819E81AF81B885820F931FA41FB51FE4
:10288000E985FA8580839183A283B38381E02A96C8
:102890000FB6F894DEBF0FBECDBFCF91DF911F9171
:1028A0000F910895EF92FF920F931F93DF93CF93B1
:1028B000CDB7DEB72A970FB6F894DEBF0FBECDBFF7
:1028C00069837A838B839C832D833E834F835887D0
:1028D0001A87098729813A814B815C818D819E818C
:1028E000AF81B88579018A01E81AF90A0A0B1B0B36
:1028F000D801C701E985FA8580839183A283B383D8
:1029000081E02A960FB6F894DEBF0FBECDBFCF91FF
:10291000DF911F910F91FF90EF9008950F931F93F8
:10292000DF93CF93CDB7DEB72A970FB6F894DEBF0B
:102930000FBECDBF69837A838B839C832D833E83B7
:102940004F8358871A87098789819A81AB81BC8117
:102950002D813E814F815885BC01CD010E94C41458
:10296000DC01CB01E985FA8580839183A283B3835F
:1029700081E02A960FB6F894DEBF0FBECDBFCF918F
:10298000DF911F910F910895629FD001739FF00115
:10299000829FE00DF11D649FE00DF11D929FF00DEF
:1029A000839FF00D749FF00D659FF00D9927729F26
:1029B000B00DE11DF91F639FB00DE11DF91FBD01B1
:1029C000CF011124089597FB092E05260ED057FD3F
:1029D00004D014D00AD0001C38F45095409530959E
:1029E00021953F4F4F4F5F4F0895F6F79095809593
:1029F000709561957F4F8F4F9F4F0895A1E21A2EDA
:102A0000AA1BBB1BFD010DC0AA1FBB1FEE1FFF1F92
:102A1000A217B307E407F50720F0A21BB30BE40BE2
:102A2000F50B661F771F881F991F1A9469F7609529
:102A30007095809590959B01AC01BD01CF010895E3
:102A40002F923F924F925F926F927F928F929F92BE
:102A5000AF92BF92CF92DF92EF92FF920F931F93AC
:102A6000CF93DF93CDB7DEB7CA1BDB0B0FB6F8945D
:102A7000DEBF0FBECDBF09942A88398848885F849D
:102A80006E847D848C849B84AA84B984C884DF800E
:102A9000EE80FD800C811B81AA81B981CE0FD11DF2
:102AA0000FB6F894DEBF0FBECDBFED010895F894C8
:022AB000FFCF56
:102AB200556E6B6E6F776E204572726F723A0000C0
:102AC20000000000000000010101010101010101FB
:102AD2000101010708092F040506780102032D43AD
:042AE200003D2B0088
:00000001FF
